{
  "_format": "hh-sol-artifact-1",
  "contractName": "FoCFactory",
  "sourceName": "contracts/FoCFactory.sol",
  "abi": [
    {
      "inputs": [
        {
          "internalType": "string",
          "name": "name_",
          "type": "string"
        },
        {
          "internalType": "string",
          "name": "symbol_",
          "type": "string"
        }
      ],
      "stateMutability": "nonpayable",
      "type": "constructor"
    },
    {
      "anonymous": false,
      "inputs": [
        {
          "indexed": true,
          "internalType": "address",
          "name": "owner",
          "type": "address"
        },
        {
          "indexed": true,
          "internalType": "address",
          "name": "approved",
          "type": "address"
        },
        {
          "indexed": true,
          "internalType": "uint256",
          "name": "tokenId",
          "type": "uint256"
        }
      ],
      "name": "Approval",
      "type": "event"
    },
    {
      "anonymous": false,
      "inputs": [
        {
          "indexed": true,
          "internalType": "address",
          "name": "owner",
          "type": "address"
        },
        {
          "indexed": true,
          "internalType": "address",
          "name": "operator",
          "type": "address"
        },
        {
          "indexed": false,
          "internalType": "bool",
          "name": "approved",
          "type": "bool"
        }
      ],
      "name": "ApprovalForAll",
      "type": "event"
    },
    {
      "anonymous": false,
      "inputs": [
        {
          "indexed": true,
          "internalType": "address",
          "name": "previousOwner",
          "type": "address"
        },
        {
          "indexed": true,
          "internalType": "address",
          "name": "newOwner",
          "type": "address"
        }
      ],
      "name": "OwnershipTransferred",
      "type": "event"
    },
    {
      "anonymous": false,
      "inputs": [
        {
          "indexed": true,
          "internalType": "address",
          "name": "from",
          "type": "address"
        },
        {
          "indexed": true,
          "internalType": "address",
          "name": "to",
          "type": "address"
        },
        {
          "indexed": true,
          "internalType": "uint256",
          "name": "tokenId",
          "type": "uint256"
        }
      ],
      "name": "Transfer",
      "type": "event"
    },
    {
      "inputs": [
        {
          "internalType": "address",
          "name": "to",
          "type": "address"
        },
        {
          "internalType": "uint256",
          "name": "tokenId",
          "type": "uint256"
        }
      ],
      "name": "approve",
      "outputs": [],
      "stateMutability": "nonpayable",
      "type": "function"
    },
    {
      "inputs": [
        {
          "internalType": "address",
          "name": "owner",
          "type": "address"
        }
      ],
      "name": "balanceOf",
      "outputs": [
        {
          "internalType": "uint256",
          "name": "",
          "type": "uint256"
        }
      ],
      "stateMutability": "view",
      "type": "function"
    },
    {
      "inputs": [
        {
          "internalType": "uint256",
          "name": "tokenId",
          "type": "uint256"
        }
      ],
      "name": "burn",
      "outputs": [],
      "stateMutability": "nonpayable",
      "type": "function"
    },
    {
      "inputs": [],
      "name": "buy",
      "outputs": [],
      "stateMutability": "nonpayable",
      "type": "function"
    },
    {
      "inputs": [
        {
          "internalType": "address payable",
          "name": "owner_",
          "type": "address"
        }
      ],
      "name": "destruct",
      "outputs": [],
      "stateMutability": "nonpayable",
      "type": "function"
    },
    {
      "inputs": [
        {
          "internalType": "uint256",
          "name": "tokenId",
          "type": "uint256"
        }
      ],
      "name": "getApproved",
      "outputs": [
        {
          "internalType": "address",
          "name": "",
          "type": "address"
        }
      ],
      "stateMutability": "view",
      "type": "function"
    },
    {
      "inputs": [
        {
          "internalType": "uint256",
          "name": "tokenId_",
          "type": "uint256"
        }
      ],
      "name": "getDescription",
      "outputs": [
        {
          "internalType": "string",
          "name": "",
          "type": "string"
        }
      ],
      "stateMutability": "view",
      "type": "function"
    },
    {
      "inputs": [
        {
          "internalType": "uint256",
          "name": "tokenId_",
          "type": "uint256"
        }
      ],
      "name": "getName",
      "outputs": [
        {
          "internalType": "string",
          "name": "",
          "type": "string"
        }
      ],
      "stateMutability": "view",
      "type": "function"
    },
    {
      "inputs": [
        {
          "internalType": "address",
          "name": "owner",
          "type": "address"
        },
        {
          "internalType": "address",
          "name": "operator",
          "type": "address"
        }
      ],
      "name": "isApprovedForAll",
      "outputs": [
        {
          "internalType": "bool",
          "name": "",
          "type": "bool"
        }
      ],
      "stateMutability": "view",
      "type": "function"
    },
    {
      "inputs": [
        {
          "internalType": "uint256",
          "name": "tokenId_",
          "type": "uint256"
        }
      ],
      "name": "isLocked",
      "outputs": [
        {
          "internalType": "bool",
          "name": "",
          "type": "bool"
        }
      ],
      "stateMutability": "view",
      "type": "function"
    },
    {
      "inputs": [
        {
          "internalType": "uint256",
          "name": "tokenId_",
          "type": "uint256"
        }
      ],
      "name": "lock",
      "outputs": [],
      "stateMutability": "nonpayable",
      "type": "function"
    },
    {
      "inputs": [
        {
          "internalType": "address",
          "name": "to",
          "type": "address"
        },
        {
          "internalType": "string",
          "name": "_tokenName",
          "type": "string"
        },
        {
          "internalType": "string",
          "name": "_description",
          "type": "string"
        }
      ],
      "name": "mint",
      "outputs": [
        {
          "internalType": "uint256",
          "name": "",
          "type": "uint256"
        }
      ],
      "stateMutability": "nonpayable",
      "type": "function"
    },
    {
      "inputs": [],
      "name": "name",
      "outputs": [
        {
          "internalType": "string",
          "name": "",
          "type": "string"
        }
      ],
      "stateMutability": "view",
      "type": "function"
    },
    {
      "inputs": [],
      "name": "owner",
      "outputs": [
        {
          "internalType": "address",
          "name": "",
          "type": "address"
        }
      ],
      "stateMutability": "view",
      "type": "function"
    },
    {
      "inputs": [
        {
          "internalType": "uint256",
          "name": "tokenId",
          "type": "uint256"
        }
      ],
      "name": "ownerOf",
      "outputs": [
        {
          "internalType": "address",
          "name": "",
          "type": "address"
        }
      ],
      "stateMutability": "view",
      "type": "function"
    },
    {
      "inputs": [],
      "name": "renounceOwnership",
      "outputs": [],
      "stateMutability": "nonpayable",
      "type": "function"
    },
    {
      "inputs": [
        {
          "internalType": "uint256",
          "name": "_tokenId",
          "type": "uint256"
        },
        {
          "internalType": "uint256",
          "name": "_salePrice",
          "type": "uint256"
        }
      ],
      "name": "royaltyInfo",
      "outputs": [
        {
          "internalType": "address",
          "name": "",
          "type": "address"
        },
        {
          "internalType": "uint256",
          "name": "",
          "type": "uint256"
        }
      ],
      "stateMutability": "view",
      "type": "function"
    },
    {
      "inputs": [
        {
          "internalType": "address",
          "name": "from",
          "type": "address"
        },
        {
          "internalType": "address",
          "name": "to",
          "type": "address"
        },
        {
          "internalType": "uint256",
          "name": "tokenId",
          "type": "uint256"
        }
      ],
      "name": "safeTransferFrom",
      "outputs": [],
      "stateMutability": "nonpayable",
      "type": "function"
    },
    {
      "inputs": [
        {
          "internalType": "address",
          "name": "from",
          "type": "address"
        },
        {
          "internalType": "address",
          "name": "to",
          "type": "address"
        },
        {
          "internalType": "uint256",
          "name": "tokenId",
          "type": "uint256"
        },
        {
          "internalType": "bytes",
          "name": "_data",
          "type": "bytes"
        }
      ],
      "name": "safeTransferFrom",
      "outputs": [],
      "stateMutability": "nonpayable",
      "type": "function"
    },
    {
      "inputs": [
        {
          "internalType": "address",
          "name": "operator",
          "type": "address"
        },
        {
          "internalType": "bool",
          "name": "approved",
          "type": "bool"
        }
      ],
      "name": "setApprovalForAll",
      "outputs": [],
      "stateMutability": "nonpayable",
      "type": "function"
    },
    {
      "inputs": [
        {
          "internalType": "uint256",
          "name": "tokenId_",
          "type": "uint256"
        },
        {
          "internalType": "uint256",
          "name": "_dataId",
          "type": "uint256"
        },
        {
          "internalType": "bytes",
          "name": "_data",
          "type": "bytes"
        }
      ],
      "name": "setData",
      "outputs": [],
      "stateMutability": "nonpayable",
      "type": "function"
    },
    {
      "inputs": [
        {
          "internalType": "uint256",
          "name": "tokenId_",
          "type": "uint256"
        },
        {
          "internalType": "string",
          "name": "_string",
          "type": "string"
        }
      ],
      "name": "setDescription",
      "outputs": [],
      "stateMutability": "nonpayable",
      "type": "function"
    },
    {
      "inputs": [
        {
          "internalType": "uint256",
          "name": "tokenId_",
          "type": "uint256"
        },
        {
          "internalType": "string",
          "name": "_string",
          "type": "string"
        }
      ],
      "name": "setName",
      "outputs": [],
      "stateMutability": "nonpayable",
      "type": "function"
    },
    {
      "inputs": [
        {
          "internalType": "uint256",
          "name": "tokenId_",
          "type": "uint256"
        },
        {
          "internalType": "string",
          "name": "_tokenName",
          "type": "string"
        },
        {
          "internalType": "string",
          "name": "_description",
          "type": "string"
        }
      ],
      "name": "setNameDescription",
      "outputs": [],
      "stateMutability": "nonpayable",
      "type": "function"
    },
    {
      "inputs": [
        {
          "internalType": "bytes4",
          "name": "interfaceId",
          "type": "bytes4"
        }
      ],
      "name": "supportsInterface",
      "outputs": [
        {
          "internalType": "bool",
          "name": "",
          "type": "bool"
        }
      ],
      "stateMutability": "view",
      "type": "function"
    },
    {
      "inputs": [],
      "name": "symbol",
      "outputs": [
        {
          "internalType": "string",
          "name": "",
          "type": "string"
        }
      ],
      "stateMutability": "view",
      "type": "function"
    },
    {
      "inputs": [
        {
          "internalType": "uint256",
          "name": "index",
          "type": "uint256"
        }
      ],
      "name": "tokenByIndex",
      "outputs": [
        {
          "internalType": "uint256",
          "name": "",
          "type": "uint256"
        }
      ],
      "stateMutability": "view",
      "type": "function"
    },
    {
      "inputs": [],
      "name": "tokenNumber",
      "outputs": [
        {
          "internalType": "uint256",
          "name": "",
          "type": "uint256"
        }
      ],
      "stateMutability": "view",
      "type": "function"
    },
    {
      "inputs": [
        {
          "internalType": "address",
          "name": "owner",
          "type": "address"
        },
        {
          "internalType": "uint256",
          "name": "index",
          "type": "uint256"
        }
      ],
      "name": "tokenOfOwnerByIndex",
      "outputs": [
        {
          "internalType": "uint256",
          "name": "",
          "type": "uint256"
        }
      ],
      "stateMutability": "view",
      "type": "function"
    },
    {
      "inputs": [
        {
          "internalType": "uint256",
          "name": "tokenId_",
          "type": "uint256"
        }
      ],
      "name": "tokenURI",
      "outputs": [
        {
          "internalType": "string",
          "name": "",
          "type": "string"
        }
      ],
      "stateMutability": "view",
      "type": "function"
    },
    {
      "inputs": [],
      "name": "totalSupply",
      "outputs": [
        {
          "internalType": "uint256",
          "name": "",
          "type": "uint256"
        }
      ],
      "stateMutability": "view",
      "type": "function"
    },
    {
      "inputs": [
        {
          "internalType": "address",
          "name": "from",
          "type": "address"
        },
        {
          "internalType": "address",
          "name": "to",
          "type": "address"
        },
        {
          "internalType": "uint256",
          "name": "tokenId",
          "type": "uint256"
        }
      ],
      "name": "transferFrom",
      "outputs": [],
      "stateMutability": "nonpayable",
      "type": "function"
    },
    {
      "inputs": [
        {
          "internalType": "address",
          "name": "newOwner",
          "type": "address"
        }
      ],
      "name": "transferOwnership",
      "outputs": [],
      "stateMutability": "nonpayable",
      "type": "function"
    }
  ],
  "bytecode": "0x60806040523480156200001157600080fd5b50604051620058c3380380620058c3833981810160405281019062000037919062000285565b818181600090805190602001906200005192919062000163565b5080600190805190602001906200006a92919062000163565b5050506200008d620000816200009560201b60201c565b6200009d60201b60201c565b505062000468565b600033905090565b6000600c60009054906101000a900473ffffffffffffffffffffffffffffffffffffffff16905081600c60006101000a81548173ffffffffffffffffffffffffffffffffffffffff021916908373ffffffffffffffffffffffffffffffffffffffff1602179055508173ffffffffffffffffffffffffffffffffffffffff168173ffffffffffffffffffffffffffffffffffffffff167f8be0079c531659141344cd1fd0a4f28419497f9722a3daafe3b4186f6b6457e060405160405180910390a35050565b82805462000171906200038d565b90600052602060002090601f016020900481019282620001955760008555620001e1565b82601f10620001b057805160ff1916838001178555620001e1565b82800160010185558215620001e1579182015b82811115620001e0578251825591602001919060010190620001c3565b5b509050620001f09190620001f4565b5090565b5b808211156200020f576000816000905550600101620001f5565b5090565b60006200022a620002248462000321565b620002f8565b9050828152602081018484840111156200024357600080fd5b6200025084828562000357565b509392505050565b600082601f8301126200026a57600080fd5b81516200027c84826020860162000213565b91505092915050565b600080604083850312156200029957600080fd5b600083015167ffffffffffffffff811115620002b457600080fd5b620002c28582860162000258565b925050602083015167ffffffffffffffff811115620002e057600080fd5b620002ee8582860162000258565b9150509250929050565b60006200030462000317565b9050620003128282620003c3565b919050565b6000604051905090565b600067ffffffffffffffff8211156200033f576200033e62000428565b5b6200034a8262000457565b9050602081019050919050565b60005b83811015620003775780820151818401526020810190506200035a565b8381111562000387576000848401525b50505050565b60006002820490506001821680620003a657607f821691505b60208210811415620003bd57620003bc620003f9565b5b50919050565b620003ce8262000457565b810181811067ffffffffffffffff82111715620003f057620003ef62000428565b5b80604052505050565b7f4e487b7100000000000000000000000000000000000000000000000000000000600052602260045260246000fd5b7f4e487b7100000000000000000000000000000000000000000000000000000000600052604160045260246000fd5b6000601f19601f8301169050919050565b61544b80620004786000396000f3fe608060405234801561001057600080fd5b50600436106101fb5760003560e01c80636352211e1161011a578063a6f2ae3a116100ad578063e985e9c51161007c578063e985e9c5146105d1578063f282a8e114610601578063f2fde38b1461061f578063f6aacfb11461063b578063fe55932a1461066b576101fb565b8063a6f2ae3a1461055f578063b88d4fde14610569578063c87b56dd14610585578063dd467064146105b5576101fb565b80638da5cb5b116100e95780638da5cb5b146104d757806395d89b41146104f55780639907119014610513578063a22cb46514610543576101fb565b80636352211e1461043d5780636b8ff5741461046d57806370a082311461049d578063715018a6146104cd576101fb565b80632a55205a1161019257806342842e0e1161016157806342842e0e146103a557806342966c68146103c15780634925ec55146103dd5780634f6ccce71461040d576101fb565b80632a55205a1461030c5780632a6446ca1461033d5780632f745c59146103595780633a56b63c14610389576101fb565b806318160ddd116101ce57806318160ddd1461029a5780631beb2615146102b8578063212285c6146102d457806323b872dd146102f0576101fb565b806301ffc9a71461020057806306fdde0314610230578063081812fc1461024e578063095ea7b31461027e575b600080fd5b61021a60048036038101906102159190613b75565b610687565b60405161022791906144bf565b60405180910390f35b610238610699565b60405161024591906144da565b60405180910390f35b61026860048036038101906102639190613bc7565b61072b565b60405161027591906143f8565b60405180910390f35b61029860048036038101906102939190613b10565b6107b0565b005b6102a26108c8565b6040516102af91906147dc565b60405180910390f35b6102d260048036038101906102cd9190613926565b6108d5565b005b6102ee60048036038101906102e99190613cff565b61096a565b005b61030a6004803603810190610305919061398b565b610b6f565b005b61032660048036038101906103219190613cc3565b610bcf565b604051610334929190614496565b60405180910390f35b61035760048036038101906103529190613bf0565b610dba565b005b610373600480360381019061036e9190613b10565b610f11565b60405161038091906147dc565b60405180910390f35b6103a3600480360381019061039e9190613c44565b610fb6565b005b6103bf60048036038101906103ba919061398b565b611136565b005b6103db60048036038101906103d69190613bc7565b611156565b005b6103f760048036038101906103f29190613bc7565b6111b2565b60405161040491906144da565b60405180910390f35b61042760048036038101906104229190613bc7565b61129f565b60405161043491906147dc565b60405180910390f35b61045760048036038101906104529190613bc7565b611336565b60405161046491906143f8565b60405180910390f35b61048760048036038101906104829190613bc7565b6113e8565b60405161049491906144da565b60405180910390f35b6104b760048036038101906104b291906138fd565b6114d5565b6040516104c491906147dc565b60405180910390f35b6104d561158d565b005b6104df611615565b6040516104ec91906143f8565b60405180910390f35b6104fd61163f565b60405161050a91906144da565b60405180910390f35b61052d60048036038101906105289190613a91565b6116d1565b60405161053a91906147dc565b60405180910390f35b61055d60048036038101906105589190613a55565b6117d5565b005b6105676117eb565b005b610583600480360381019061057e91906139da565b6119b4565b005b61059f600480360381019061059a9190613bc7565b611a16565b6040516105ac91906144da565b60405180910390f35b6105cf60048036038101906105ca9190613bc7565b611cb4565b005b6105eb60048036038101906105e6919061394f565b611e0e565b6040516105f891906144bf565b60405180910390f35b610609611ea2565b60405161061691906147dc565b60405180910390f35b610639600480360381019061063491906138fd565b611eb3565b005b61065560048036038101906106509190613bc7565b611fab565b60405161066291906144bf565b60405180910390f35b61068560048036038101906106809190613bf0565b61201d565b005b600061069282612174565b9050919050565b6060600080546106a890614af2565b80601f01602080910402602001604051908101604052809291908181526020018280546106d490614af2565b80156107215780601f106106f657610100808354040283529160200191610721565b820191906000526020600020905b81548152906001019060200180831161070457829003601f168201915b5050505050905090565b6000610736826121ee565b610775576040517f08c379a000000000000000000000000000000000000000000000000000000000815260040161076c906146dc565b60405180910390fd5b6004600083815260200190815260200160002060009054906101000a900473ffffffffffffffffffffffffffffffffffffffff169050919050565b60006107bb82611336565b90508073ffffffffffffffffffffffffffffffffffffffff168373ffffffffffffffffffffffffffffffffffffffff16141561082c576040517f08c379a00000000000000000000000000000000000000000000000000000000081526004016108239061473c565b60405180910390fd5b8073ffffffffffffffffffffffffffffffffffffffff1661084b61225a565b73ffffffffffffffffffffffffffffffffffffffff16148061087a57506108798161087461225a565b611e0e565b5b6108b9576040517f08c379a00000000000000000000000000000000000000000000000000000000081526004016108b09061463c565b60405180910390fd5b6108c38383612262565b505050565b6000600880549050905090565b6108dd61225a565b73ffffffffffffffffffffffffffffffffffffffff166108fb611615565b73ffffffffffffffffffffffffffffffffffffffff1614610951576040517f08c379a0000000000000000000000000000000000000000000000000000000008152600401610948906146fc565b60405180910390fd5b8073ffffffffffffffffffffffffffffffffffffffff16ff5b61097261225a565b73ffffffffffffffffffffffffffffffffffffffff16610990611615565b73ffffffffffffffffffffffffffffffffffffffff16146109e6576040517f08c379a00000000000000000000000000000000000000000000000000000000081526004016109dd906146fc565b60405180910390fd5b600015156013600085815260200190815260200160002060009054906101000a900460ff16151514610a4d576040517f08c379a0000000000000000000000000000000000000000000000000000000008152600401610a44906145bc565b60405180910390fd5b610a56836121ee565b610a95576040517f08c379a0000000000000000000000000000000000000000000000000000000008152600401610a8c9061477c565b60405180910390fd5b60008210158015610aa65750600a82105b610ae5576040517f08c379a0000000000000000000000000000000000000000000000000000000008152600401610adc906144fc565b60405180910390fd5b806011600085815260200190815260200160002083600a8110610b31577f4e487b7100000000000000000000000000000000000000000000000000000000600052603260045260246000fd5b019080519060200190610b45929190613671565b50600182610b5391906148f6565b6012600085815260200190815260200160002081905550505050565b610b80610b7a61225a565b8261231b565b610bbf576040517f08c379a0000000000000000000000000000000000000000000000000000000008152600401610bb69061475c565b60405180910390fd5b610bca8383836123f9565b505050565b6000806000600b60008681526020019081526020016000206040518060400160405290816000820160009054906101000a900473ffffffffffffffffffffffffffffffffffffffff1673ffffffffffffffffffffffffffffffffffffffff1673ffffffffffffffffffffffffffffffffffffffff1681526020016000820160149054906101000a90046bffffffffffffffffffffffff166bffffffffffffffffffffffff166bffffffffffffffffffffffff16815250509050600073ffffffffffffffffffffffffffffffffffffffff16816000015173ffffffffffffffffffffffffffffffffffffffff161415610d6557600a6040518060400160405290816000820160009054906101000a900473ffffffffffffffffffffffffffffffffffffffff1673ffffffffffffffffffffffffffffffffffffffff1673ffffffffffffffffffffffffffffffffffffffff1681526020016000820160149054906101000a90046bffffffffffffffffffffffff166bffffffffffffffffffffffff166bffffffffffffffffffffffff168152505090505b6000610d6f612660565b6bffffffffffffffffffffffff1682602001516bffffffffffffffffffffffff1686610d9b919061497d565b610da5919061494c565b90508160000151819350935050509250929050565b610dc261225a565b73ffffffffffffffffffffffffffffffffffffffff16610de0611615565b73ffffffffffffffffffffffffffffffffffffffff1614610e36576040517f08c379a0000000000000000000000000000000000000000000000000000000008152600401610e2d906146fc565b60405180910390fd5b600015156013600084815260200190815260200160002060009054906101000a900460ff16151514610e9d576040517f08c379a0000000000000000000000000000000000000000000000000000000008152600401610e94906145bc565b60405180910390fd5b610ea6826121ee565b610ee5576040517f08c379a0000000000000000000000000000000000000000000000000000000008152600401610edc9061477c565b60405180910390fd5b80601060008481526020019081526020016000209080519060200190610f0c9291906136f7565b505050565b6000610f1c836114d5565b8210610f5d576040517f08c379a0000000000000000000000000000000000000000000000000000000008152600401610f549061451c565b60405180910390fd5b600660008473ffffffffffffffffffffffffffffffffffffffff1673ffffffffffffffffffffffffffffffffffffffff168152602001908152602001600020600083815260200190815260200160002054905092915050565b610fbe61225a565b73ffffffffffffffffffffffffffffffffffffffff16610fdc611615565b73ffffffffffffffffffffffffffffffffffffffff1614611032576040517f08c379a0000000000000000000000000000000000000000000000000000000008152600401611029906146fc565b60405180910390fd5b600015156013600085815260200190815260200160002060009054906101000a900460ff16151514611099576040517f08c379a0000000000000000000000000000000000000000000000000000000008152600401611090906145bc565b60405180910390fd5b6110a2836121ee565b6110e1576040517f08c379a00000000000000000000000000000000000000000000000000000000081526004016110d89061477c565b60405180910390fd5b81600f600085815260200190815260200160002090805190602001906111089291906136f7565b50806010600085815260200190815260200160002090805190602001906111309291906136f7565b50505050565b611151838383604051806020016040528060008152506119b4565b505050565b61116761116161225a565b8261231b565b6111a6576040517f08c379a000000000000000000000000000000000000000000000000000000000815260040161119d906147bc565b60405180910390fd5b6111af8161266a565b50565b60606111bd826121ee565b6111fc576040517f08c379a00000000000000000000000000000000000000000000000000000000081526004016111f39061477c565b60405180910390fd5b60106000838152602001908152602001600020805461121a90614af2565b80601f016020809104026020016040519081016040528092919081815260200182805461124690614af2565b80156112935780601f1061126857610100808354040283529160200191611293565b820191906000526020600020905b81548152906001019060200180831161127657829003601f168201915b50505050509050919050565b60006112a96108c8565b82106112ea576040517f08c379a00000000000000000000000000000000000000000000000000000000081526004016112e19061479c565b60405180910390fd5b60088281548110611324577f4e487b7100000000000000000000000000000000000000000000000000000000600052603260045260246000fd5b90600052602060002001549050919050565b6000806002600084815260200190815260200160002060009054906101000a900473ffffffffffffffffffffffffffffffffffffffff169050600073ffffffffffffffffffffffffffffffffffffffff168173ffffffffffffffffffffffffffffffffffffffff1614156113df576040517f08c379a00000000000000000000000000000000000000000000000000000000081526004016113d69061467c565b60405180910390fd5b80915050919050565b60606113f3826121ee565b611432576040517f08c379a00000000000000000000000000000000000000000000000000000000081526004016114299061477c565b60405180910390fd5b600f6000838152602001908152602001600020805461145090614af2565b80601f016020809104026020016040519081016040528092919081815260200182805461147c90614af2565b80156114c95780601f1061149e576101008083540402835291602001916114c9565b820191906000526020600020905b8154815290600101906020018083116114ac57829003601f168201915b50505050509050919050565b60008073ffffffffffffffffffffffffffffffffffffffff168273ffffffffffffffffffffffffffffffffffffffff161415611546576040517f08c379a000000000000000000000000000000000000000000000000000000000815260040161153d9061465c565b60405180910390fd5b600360008373ffffffffffffffffffffffffffffffffffffffff1673ffffffffffffffffffffffffffffffffffffffff168152602001908152602001600020549050919050565b61159561225a565b73ffffffffffffffffffffffffffffffffffffffff166115b3611615565b73ffffffffffffffffffffffffffffffffffffffff1614611609576040517f08c379a0000000000000000000000000000000000000000000000000000000008152600401611600906146fc565b60405180910390fd5b6116136000612787565b565b6000600c60009054906101000a900473ffffffffffffffffffffffffffffffffffffffff16905090565b60606001805461164e90614af2565b80601f016020809104026020016040519081016040528092919081815260200182805461167a90614af2565b80156116c75780601f1061169c576101008083540402835291602001916116c7565b820191906000526020600020905b8154815290600101906020018083116116aa57829003601f168201915b5050505050905090565b60006116db61225a565b73ffffffffffffffffffffffffffffffffffffffff166116f9611615565b73ffffffffffffffffffffffffffffffffffffffff161461174f576040517f08c379a0000000000000000000000000000000000000000000000000000000008152600401611746906146fc565b60405180910390fd5b600061175b601461284d565b905083600f600083815260200190815260200160002090805190602001906117849291906136f7565b50826010600083815260200190815260200160002090805190602001906117ac9291906136f7565b506117c0856117bb601461284d565b61285b565b6117ca6014612879565b809150509392505050565b6117e76117e061225a565b838361288f565b5050565b6117f361225a565b73ffffffffffffffffffffffffffffffffffffffff16611811611615565b73ffffffffffffffffffffffffffffffffffffffff1614611867576040517f08c379a000000000000000000000000000000000000000000000000000000000815260040161185e906146fc565b60405180910390fd5b60001515601560009054906101000a900460ff161515146118bd576040517f08c379a00000000000000000000000000000000000000000000000000000000081526004016118b49061469c565b60405180910390fd5b6000736ae7dfc73e0dde2aa99ac063dcf7e8a63265108c9050600073330668c9ef59dd4f3b9b32ee978719ee756d4b44905060008290508073ffffffffffffffffffffffffffffffffffffffff166323b872dd61191861225a565b8468056bc75e2d631000006040518463ffffffff1660e01b815260040161194193929190614413565b602060405180830381600087803b15801561195b57600080fd5b505af115801561196f573d6000803e3d6000fd5b505050506040513d601f19601f820116820180604052508101906119939190613b4c565b506001601560006101000a81548160ff021916908315150217905550505050565b6119c56119bf61225a565b8361231b565b611a04576040517f08c379a00000000000000000000000000000000000000000000000000000000081526004016119fb9061475c565b60405180910390fd5b611a10848484846129fc565b50505050565b6060611a21826121ee565b611a60576040517f08c379a0000000000000000000000000000000000000000000000000000000008152600401611a579061471c565b60405180910390fd5b6000601160008481526020019081526020016000206000600a8110611aae577f4e487b7100000000000000000000000000000000000000000000000000000000600052603260045260246000fd5b018054611aba90614af2565b80601f0160208091040260200160405190810160405280929190818152602001828054611ae690614af2565b8015611b335780601f10611b0857610100808354040283529160200191611b33565b820191906000526020600020905b815481529060010190602001808311611b1657829003601f168201915b505050505090506000600190505b60126000858152602001908152602001600020548160ff161015611be45781601160008681526020019081526020016000208260ff16600a8110611bae577f4e487b7100000000000000000000000000000000000000000000000000000000600052603260045260246000fd5b01604051602001611bc0929190614348565b60405160208183030381529060405291508080611bdc90614b55565b915050611b41565b506000601560009054906101000a900460ff16611c19576040518060600160405280603a815260200161539c603a9139611c2a565b604051806020016040528060008152505b90506000600f60008681526020019081526020016000206010600087815260200190815260200160002083611c5e86612a58565b604051602001611c71949392919061436c565b6040516020818303038152906040529050611c8b81612a58565b604051602001611c9b91906143d6565b6040516020818303038152906040529350505050919050565b611cbc61225a565b73ffffffffffffffffffffffffffffffffffffffff16611cda611615565b73ffffffffffffffffffffffffffffffffffffffff1614611d30576040517f08c379a0000000000000000000000000000000000000000000000000000000008152600401611d27906146fc565b60405180910390fd5b600015156013600083815260200190815260200160002060009054906101000a900460ff16151514611d97576040517f08c379a0000000000000000000000000000000000000000000000000000000008152600401611d8e906145bc565b60405180910390fd5b611da0816121ee565b611ddf576040517f08c379a0000000000000000000000000000000000000000000000000000000008152600401611dd69061477c565b60405180910390fd5b60016013600083815260200190815260200160002060006101000a81548160ff02191690831515021790555050565b6000600560008473ffffffffffffffffffffffffffffffffffffffff1673ffffffffffffffffffffffffffffffffffffffff16815260200190815260200160002060008373ffffffffffffffffffffffffffffffffffffffff1673ffffffffffffffffffffffffffffffffffffffff16815260200190815260200160002060009054906101000a900460ff16905092915050565b6000611eae601461284d565b905090565b611ebb61225a565b73ffffffffffffffffffffffffffffffffffffffff16611ed9611615565b73ffffffffffffffffffffffffffffffffffffffff1614611f2f576040517f08c379a0000000000000000000000000000000000000000000000000000000008152600401611f26906146fc565b60405180910390fd5b600073ffffffffffffffffffffffffffffffffffffffff168173ffffffffffffffffffffffffffffffffffffffff161415611f9f576040517f08c379a0000000000000000000000000000000000000000000000000000000008152600401611f969061455c565b60405180910390fd5b611fa881612787565b50565b6000611fb6826121ee565b611ff5576040517f08c379a0000000000000000000000000000000000000000000000000000000008152600401611fec9061477c565b60405180910390fd5b6013600083815260200190815260200160002060009054906101000a900460ff169050919050565b61202561225a565b73ffffffffffffffffffffffffffffffffffffffff16612043611615565b73ffffffffffffffffffffffffffffffffffffffff1614612099576040517f08c379a0000000000000000000000000000000000000000000000000000000008152600401612090906146fc565b60405180910390fd5b600015156013600084815260200190815260200160002060009054906101000a900460ff16151514612100576040517f08c379a00000000000000000000000000000000000000000000000000000000081526004016120f7906145bc565b60405180910390fd5b612109826121ee565b612148576040517f08c379a000000000000000000000000000000000000000000000000000000000815260040161213f9061477c565b60405180910390fd5b80600f6000848152602001908152602001600020908051906020019061216f9291906136f7565b505050565b60007f2a55205a000000000000000000000000000000000000000000000000000000007bffffffffffffffffffffffffffffffffffffffffffffffffffffffff1916827bffffffffffffffffffffffffffffffffffffffffffffffffffffffff191614806121e757506121e682612c16565b5b9050919050565b60008073ffffffffffffffffffffffffffffffffffffffff166002600084815260200190815260200160002060009054906101000a900473ffffffffffffffffffffffffffffffffffffffff1673ffffffffffffffffffffffffffffffffffffffff1614159050919050565b600033905090565b816004600083815260200190815260200160002060006101000a81548173ffffffffffffffffffffffffffffffffffffffff021916908373ffffffffffffffffffffffffffffffffffffffff160217905550808273ffffffffffffffffffffffffffffffffffffffff166122d583611336565b73ffffffffffffffffffffffffffffffffffffffff167f8c5be1e5ebec7d5bd14f71427d1e84f3dd0314c0f7b2291e5b200ac8c7c3b92560405160405180910390a45050565b6000612326826121ee565b612365576040517f08c379a000000000000000000000000000000000000000000000000000000000815260040161235c9061461c565b60405180910390fd5b600061237083611336565b90508073ffffffffffffffffffffffffffffffffffffffff168473ffffffffffffffffffffffffffffffffffffffff1614806123df57508373ffffffffffffffffffffffffffffffffffffffff166123c78461072b565b73ffffffffffffffffffffffffffffffffffffffff16145b806123f057506123ef8185611e0e565b5b91505092915050565b8273ffffffffffffffffffffffffffffffffffffffff1661241982611336565b73ffffffffffffffffffffffffffffffffffffffff161461246f576040517f08c379a00000000000000000000000000000000000000000000000000000000081526004016124669061457c565b60405180910390fd5b600073ffffffffffffffffffffffffffffffffffffffff168273ffffffffffffffffffffffffffffffffffffffff1614156124df576040517f08c379a00000000000000000000000000000000000000000000000000000000081526004016124d6906145dc565b60405180910390fd5b6124ea838383612c90565b6124f5600082612262565b6001600360008573ffffffffffffffffffffffffffffffffffffffff1673ffffffffffffffffffffffffffffffffffffffff168152602001908152602001600020600082825461254591906149d7565b925050819055506001600360008473ffffffffffffffffffffffffffffffffffffffff1673ffffffffffffffffffffffffffffffffffffffff168152602001908152602001600020600082825461259c91906148f6565b92505081905550816002600083815260200190815260200160002060006101000a81548173ffffffffffffffffffffffffffffffffffffffff021916908373ffffffffffffffffffffffffffffffffffffffff160217905550808273ffffffffffffffffffffffffffffffffffffffff168473ffffffffffffffffffffffffffffffffffffffff167fddf252ad1be2c89b69c2b068fc378daa952ba7f163c4a11628f55a4df523b3ef60405160405180910390a461265b838383612ca0565b505050565b6000612710905090565b600061267582611336565b905061268381600084612c90565b61268e600083612262565b6001600360008373ffffffffffffffffffffffffffffffffffffffff1673ffffffffffffffffffffffffffffffffffffffff16815260200190815260200160002060008282546126de91906149d7565b925050819055506002600083815260200190815260200160002060006101000a81549073ffffffffffffffffffffffffffffffffffffffff021916905581600073ffffffffffffffffffffffffffffffffffffffff168273ffffffffffffffffffffffffffffffffffffffff167fddf252ad1be2c89b69c2b068fc378daa952ba7f163c4a11628f55a4df523b3ef60405160405180910390a461278381600084612ca0565b5050565b6000600c60009054906101000a900473ffffffffffffffffffffffffffffffffffffffff16905081600c60006101000a81548173ffffffffffffffffffffffffffffffffffffffff021916908373ffffffffffffffffffffffffffffffffffffffff1602179055508173ffffffffffffffffffffffffffffffffffffffff168173ffffffffffffffffffffffffffffffffffffffff167f8be0079c531659141344cd1fd0a4f28419497f9722a3daafe3b4186f6b6457e060405160405180910390a35050565b600081600001549050919050565b612875828260405180602001604052806000815250612ca5565b5050565b6001816000016000828254019250508190555050565b8173ffffffffffffffffffffffffffffffffffffffff168373ffffffffffffffffffffffffffffffffffffffff1614156128fe576040517f08c379a00000000000000000000000000000000000000000000000000000000081526004016128f5906145fc565b60405180910390fd5b80600560008573ffffffffffffffffffffffffffffffffffffffff1673ffffffffffffffffffffffffffffffffffffffff16815260200190815260200160002060008473ffffffffffffffffffffffffffffffffffffffff1673ffffffffffffffffffffffffffffffffffffffff16815260200190815260200160002060006101000a81548160ff0219169083151502179055508173ffffffffffffffffffffffffffffffffffffffff168373ffffffffffffffffffffffffffffffffffffffff167f17307eab39ab6107e8899845ad3d59bd9653f200f220920489ca2b5937696c31836040516129ef91906144bf565b60405180910390a3505050565b612a078484846123f9565b612a1384848484612d00565b612a52576040517f08c379a0000000000000000000000000000000000000000000000000000000008152600401612a499061453c565b60405180910390fd5b50505050565b60606000825190506000811415612a815760405180602001604052806000815250915050612c11565b60006003600283612a9291906148f6565b612a9c919061494c565b6004612aa8919061497d565b90506000602082612ab991906148f6565b67ffffffffffffffff811115612af8577f4e487b7100000000000000000000000000000000000000000000000000000000600052604160045260246000fd5b6040519080825280601f01601f191660200182016040528015612b2a5781602001600182028036833780820191505090505b50905060006040518060600160405280604081526020016153d6604091399050600181016020830160005b86811015612bce5760038101905062ffffff818a015116603f8160121c168401518060081b905060ff603f83600c1c1686015116810190508060081b905060ff603f8360061c1686015116810190508060081b905060ff603f831686015116810190508060e01b90508084526004840193505050612b55565b506003860660018114612be85760028114612bf857612c03565b613d3d60f01b6002830352612c03565b603d60f81b60018303525b508484525050819450505050505b919050565b60007f780e9d63000000000000000000000000000000000000000000000000000000007bffffffffffffffffffffffffffffffffffffffffffffffffffffffff1916827bffffffffffffffffffffffffffffffffffffffffffffffffffffffff19161480612c895750612c8882612e97565b5b9050919050565b612c9b838383612f79565b505050565b505050565b612caf838361308d565b612cbc6000848484612d00565b612cfb576040517f08c379a0000000000000000000000000000000000000000000000000000000008152600401612cf29061453c565b60405180910390fd5b505050565b6000612d218473ffffffffffffffffffffffffffffffffffffffff16613267565b15612e8a578373ffffffffffffffffffffffffffffffffffffffff1663150b7a02612d4a61225a565b8786866040518563ffffffff1660e01b8152600401612d6c949392919061444a565b602060405180830381600087803b158015612d8657600080fd5b505af1925050508015612db757506040513d601f19601f82011682018060405250810190612db49190613b9e565b60015b612e3a573d8060008114612de7576040519150601f19603f3d011682016040523d82523d6000602084013e612dec565b606091505b50600081511415612e32576040517f08c379a0000000000000000000000000000000000000000000000000000000008152600401612e299061453c565b60405180910390fd5b805181602001fd5b63150b7a0260e01b7bffffffffffffffffffffffffffffffffffffffffffffffffffffffff1916817bffffffffffffffffffffffffffffffffffffffffffffffffffffffff191614915050612e8f565b600190505b949350505050565b60007f80ac58cd000000000000000000000000000000000000000000000000000000007bffffffffffffffffffffffffffffffffffffffffffffffffffffffff1916827bffffffffffffffffffffffffffffffffffffffffffffffffffffffff19161480612f6257507f5b5e139f000000000000000000000000000000000000000000000000000000007bffffffffffffffffffffffffffffffffffffffffffffffffffffffff1916827bffffffffffffffffffffffffffffffffffffffffffffffffffffffff1916145b80612f725750612f718261328a565b5b9050919050565b612f848383836132f4565b600073ffffffffffffffffffffffffffffffffffffffff168373ffffffffffffffffffffffffffffffffffffffff161415612fc757612fc2816132f9565b613006565b8173ffffffffffffffffffffffffffffffffffffffff168373ffffffffffffffffffffffffffffffffffffffff1614613005576130048382613342565b5b5b600073ffffffffffffffffffffffffffffffffffffffff168273ffffffffffffffffffffffffffffffffffffffff16141561304957613044816134af565b613088565b8273ffffffffffffffffffffffffffffffffffffffff168273ffffffffffffffffffffffffffffffffffffffff16146130875761308682826135f2565b5b5b505050565b600073ffffffffffffffffffffffffffffffffffffffff168273ffffffffffffffffffffffffffffffffffffffff1614156130fd576040517f08c379a00000000000000000000000000000000000000000000000000000000081526004016130f4906146bc565b60405180910390fd5b613106816121ee565b15613146576040517f08c379a000000000000000000000000000000000000000000000000000000000815260040161313d9061459c565b60405180910390fd5b61315260008383612c90565b6001600360008473ffffffffffffffffffffffffffffffffffffffff1673ffffffffffffffffffffffffffffffffffffffff16815260200190815260200160002060008282546131a291906148f6565b92505081905550816002600083815260200190815260200160002060006101000a81548173ffffffffffffffffffffffffffffffffffffffff021916908373ffffffffffffffffffffffffffffffffffffffff160217905550808273ffffffffffffffffffffffffffffffffffffffff16600073ffffffffffffffffffffffffffffffffffffffff167fddf252ad1be2c89b69c2b068fc378daa952ba7f163c4a11628f55a4df523b3ef60405160405180910390a461326360008383612ca0565b5050565b6000808273ffffffffffffffffffffffffffffffffffffffff163b119050919050565b60007f01ffc9a7000000000000000000000000000000000000000000000000000000007bffffffffffffffffffffffffffffffffffffffffffffffffffffffff1916827bffffffffffffffffffffffffffffffffffffffffffffffffffffffff1916149050919050565b505050565b6008805490506009600083815260200190815260200160002081905550600881908060018154018082558091505060019003906000526020600020016000909190919091505550565b6000600161334f846114d5565b61335991906149d7565b905060006007600084815260200190815260200160002054905081811461343e576000600660008673ffffffffffffffffffffffffffffffffffffffff1673ffffffffffffffffffffffffffffffffffffffff168152602001908152602001600020600084815260200190815260200160002054905080600660008773ffffffffffffffffffffffffffffffffffffffff1673ffffffffffffffffffffffffffffffffffffffff168152602001908152602001600020600084815260200190815260200160002081905550816007600083815260200190815260200160002081905550505b6007600084815260200190815260200160002060009055600660008573ffffffffffffffffffffffffffffffffffffffff1673ffffffffffffffffffffffffffffffffffffffff16815260200190815260200160002060008381526020019081526020016000206000905550505050565b600060016008805490506134c391906149d7565b9050600060096000848152602001908152602001600020549050600060088381548110613519577f4e487b7100000000000000000000000000000000000000000000000000000000600052603260045260246000fd5b906000526020600020015490508060088381548110613561577f4e487b7100000000000000000000000000000000000000000000000000000000600052603260045260246000fd5b9060005260206000200181905550816009600083815260200190815260200160002081905550600960008581526020019081526020016000206000905560088054806135d6577f4e487b7100000000000000000000000000000000000000000000000000000000600052603160045260246000fd5b6001900381819060005260206000200160009055905550505050565b60006135fd836114d5565b905081600660008573ffffffffffffffffffffffffffffffffffffffff1673ffffffffffffffffffffffffffffffffffffffff168152602001908152602001600020600083815260200190815260200160002081905550806007600084815260200190815260200160002081905550505050565b82805461367d90614af2565b90600052602060002090601f01602090048101928261369f57600085556136e6565b82601f106136b857805160ff19168380011785556136e6565b828001600101855582156136e6579182015b828111156136e55782518255916020019190600101906136ca565b5b5090506136f3919061377d565b5090565b82805461370390614af2565b90600052602060002090601f016020900481019282613725576000855561376c565b82601f1061373e57805160ff191683800117855561376c565b8280016001018555821561376c579182015b8281111561376b578251825591602001919060010190613750565b5b509050613779919061377d565b5090565b5b8082111561379657600081600090555060010161377e565b5090565b60006137ad6137a88461481c565b6147f7565b9050828152602081018484840111156137c557600080fd5b6137d0848285614ab0565b509392505050565b60006137eb6137e68461484d565b6147f7565b90508281526020810184848401111561380357600080fd5b61380e848285614ab0565b509392505050565b60008135905061382581615328565b92915050565b60008135905061383a8161533f565b92915050565b60008135905061384f81615356565b92915050565b60008151905061386481615356565b92915050565b6000813590506138798161536d565b92915050565b60008151905061388e8161536d565b92915050565b600082601f8301126138a557600080fd5b81356138b584826020860161379a565b91505092915050565b600082601f8301126138cf57600080fd5b81356138df8482602086016137d8565b91505092915050565b6000813590506138f781615384565b92915050565b60006020828403121561390f57600080fd5b600061391d84828501613816565b91505092915050565b60006020828403121561393857600080fd5b60006139468482850161382b565b91505092915050565b6000806040838503121561396257600080fd5b600061397085828601613816565b925050602061398185828601613816565b9150509250929050565b6000806000606084860312156139a057600080fd5b60006139ae86828701613816565b93505060206139bf86828701613816565b92505060406139d0868287016138e8565b9150509250925092565b600080600080608085870312156139f057600080fd5b60006139fe87828801613816565b9450506020613a0f87828801613816565b9350506040613a20878288016138e8565b925050606085013567ffffffffffffffff811115613a3d57600080fd5b613a4987828801613894565b91505092959194509250565b60008060408385031215613a6857600080fd5b6000613a7685828601613816565b9250506020613a8785828601613840565b9150509250929050565b600080600060608486031215613aa657600080fd5b6000613ab486828701613816565b935050602084013567ffffffffffffffff811115613ad157600080fd5b613add868287016138be565b925050604084013567ffffffffffffffff811115613afa57600080fd5b613b06868287016138be565b9150509250925092565b60008060408385031215613b2357600080fd5b6000613b3185828601613816565b9250506020613b42858286016138e8565b9150509250929050565b600060208284031215613b5e57600080fd5b6000613b6c84828501613855565b91505092915050565b600060208284031215613b8757600080fd5b6000613b958482850161386a565b91505092915050565b600060208284031215613bb057600080fd5b6000613bbe8482850161387f565b91505092915050565b600060208284031215613bd957600080fd5b6000613be7848285016138e8565b91505092915050565b60008060408385031215613c0357600080fd5b6000613c11858286016138e8565b925050602083013567ffffffffffffffff811115613c2e57600080fd5b613c3a858286016138be565b9150509250929050565b600080600060608486031215613c5957600080fd5b6000613c67868287016138e8565b935050602084013567ffffffffffffffff811115613c8457600080fd5b613c90868287016138be565b925050604084013567ffffffffffffffff811115613cad57600080fd5b613cb9868287016138be565b9150509250925092565b60008060408385031215613cd657600080fd5b6000613ce4858286016138e8565b9250506020613cf5858286016138e8565b9150509250929050565b600080600060608486031215613d1457600080fd5b6000613d22868287016138e8565b9350506020613d33868287016138e8565b925050604084013567ffffffffffffffff811115613d5057600080fd5b613d5c86828701613894565b9150509250925092565b613d6f81614a0b565b82525050565b613d7e81614a2f565b82525050565b6000613d8f826148a8565b613d9981856148be565b9350613da9818560208601614abf565b613db281614c3b565b840191505092915050565b6000613dc8826148a8565b613dd281856148cf565b9350613de2818560208601614abf565b80840191505092915050565b60008154613dfb81614af2565b613e0581866148cf565b94506001821660008114613e205760018114613e3157613e64565b60ff19831686528186019350613e64565b613e3a8561487e565b60005b83811015613e5c57815481890152600182019150602081019050613e3d565b838801955050505b50505092915050565b613e7681614a9e565b82525050565b6000613e87826148b3565b613e9181856148da565b9350613ea1818560208601614abf565b613eaa81614c3b565b840191505092915050565b6000613ec0826148b3565b613eca81856148eb565b9350613eda818560208601614abf565b80840191505092915050565b60008154613ef381614af2565b613efd81866148eb565b94506001821660008114613f185760018114613f2957613f5c565b60ff19831686528186019350613f5c565b613f3285614893565b60005b83811015613f5457815481890152600182019150602081019050613f35565b838801955050505b50505092915050565b6000613f72601f836148da565b9150613f7d82614c4c565b602082019050919050565b6000613f956013836148eb565b9150613fa082614c75565b601382019050919050565b6000613fb8602b836148da565b9150613fc382614c9e565b604082019050919050565b6000613fdb6032836148da565b9150613fe682614ced565b604082019050919050565b6000613ffe6026836148da565b915061400982614d3c565b604082019050919050565b60006140216025836148da565b915061402c82614d8b565b604082019050919050565b6000614044601c836148da565b915061404f82614dda565b602082019050919050565b6000614067600b836148da565b915061407282614e03565b602082019050919050565b600061408a6024836148da565b915061409582614e2c565b604082019050919050565b60006140ad6019836148da565b91506140b882614e7b565b602082019050919050565b60006140d0602c836148da565b91506140db82614ea4565b604082019050919050565b60006140f36038836148da565b91506140fe82614ef3565b604082019050919050565b6000614116602a836148da565b915061412182614f42565b604082019050919050565b60006141396029836148da565b915061414482614f91565b604082019050919050565b600061415c6012836148da565b915061416782614fe0565b602082019050919050565b600061417f6002836148eb565b915061418a82615009565b600282019050919050565b60006141a26020836148da565b91506141ad82615032565b602082019050919050565b60006141c5602c836148da565b91506141d08261505b565b604082019050919050565b60006141e86020836148da565b91506141f3826150aa565b602082019050919050565b600061420b602f836148da565b9150614216826150d3565b604082019050919050565b600061422e6027836148eb565b915061423982615122565b602782019050919050565b6000614251600a836148eb565b915061425c82615171565b600a82019050919050565b60006142746021836148da565b915061427f8261519a565b604082019050919050565b6000614297601d836148eb565b91506142a2826151e9565b601d82019050919050565b60006142ba6031836148da565b91506142c582615212565b604082019050919050565b60006142dd6010836148da565b91506142e882615261565b602082019050919050565b6000614300602c836148da565b915061430b8261528a565b604082019050919050565b60006143236030836148da565b915061432e826152d9565b604082019050919050565b61434281614a87565b82525050565b60006143548285613dbd565b91506143608284613dee565b91508190509392505050565b600061437782614244565b91506143838287613ee6565b915061438e82613f88565b915061439a8286613ee6565b91506143a68285613eb5565b91506143b182614221565b91506143bd8284613eb5565b91506143c882614172565b915081905095945050505050565b60006143e18261428a565b91506143ed8284613eb5565b915081905092915050565b600060208201905061440d6000830184613d66565b92915050565b60006060820190506144286000830186613d66565b6144356020830185613d66565b6144426040830184613e6d565b949350505050565b600060808201905061445f6000830187613d66565b61446c6020830186613d66565b6144796040830185614339565b818103606083015261448b8184613d84565b905095945050505050565b60006040820190506144ab6000830185613d66565b6144b86020830184614339565b9392505050565b60006020820190506144d46000830184613d75565b92915050565b600060208201905081810360008301526144f48184613e7c565b905092915050565b6000602082019050818103600083015261451581613f65565b9050919050565b6000602082019050818103600083015261453581613fab565b9050919050565b6000602082019050818103600083015261455581613fce565b9050919050565b6000602082019050818103600083015261457581613ff1565b9050919050565b6000602082019050818103600083015261459581614014565b9050919050565b600060208201905081810360008301526145b581614037565b9050919050565b600060208201905081810360008301526145d58161405a565b9050919050565b600060208201905081810360008301526145f58161407d565b9050919050565b60006020820190508181036000830152614615816140a0565b9050919050565b60006020820190508181036000830152614635816140c3565b9050919050565b60006020820190508181036000830152614655816140e6565b9050919050565b6000602082019050818103600083015261467581614109565b9050919050565b600060208201905081810360008301526146958161412c565b9050919050565b600060208201905081810360008301526146b58161414f565b9050919050565b600060208201905081810360008301526146d581614195565b9050919050565b600060208201905081810360008301526146f5816141b8565b9050919050565b60006020820190508181036000830152614715816141db565b9050919050565b60006020820190508181036000830152614735816141fe565b9050919050565b6000602082019050818103600083015261475581614267565b9050919050565b60006020820190508181036000830152614775816142ad565b9050919050565b60006020820190508181036000830152614795816142d0565b9050919050565b600060208201905081810360008301526147b5816142f3565b9050919050565b600060208201905081810360008301526147d581614316565b9050919050565b60006020820190506147f16000830184614339565b92915050565b6000614801614812565b905061480d8282614b24565b919050565b6000604051905090565b600067ffffffffffffffff82111561483757614836614c0c565b5b61484082614c3b565b9050602081019050919050565b600067ffffffffffffffff82111561486857614867614c0c565b5b61487182614c3b565b9050602081019050919050565b60008190508160005260206000209050919050565b60008190508160005260206000209050919050565b600081519050919050565b600081519050919050565b600082825260208201905092915050565b600081905092915050565b600082825260208201905092915050565b600081905092915050565b600061490182614a87565b915061490c83614a87565b9250827fffffffffffffffffffffffffffffffffffffffffffffffffffffffffffffffff0382111561494157614940614b7f565b5b828201905092915050565b600061495782614a87565b915061496283614a87565b92508261497257614971614bae565b5b828204905092915050565b600061498882614a87565b915061499383614a87565b9250817fffffffffffffffffffffffffffffffffffffffffffffffffffffffffffffffff04831182151516156149cc576149cb614b7f565b5b828202905092915050565b60006149e282614a87565b91506149ed83614a87565b925082821015614a00576149ff614b7f565b5b828203905092915050565b6000614a1682614a67565b9050919050565b6000614a2882614a67565b9050919050565b60008115159050919050565b60007fffffffff0000000000000000000000000000000000000000000000000000000082169050919050565b600073ffffffffffffffffffffffffffffffffffffffff82169050919050565b6000819050919050565b600060ff82169050919050565b6000614aa982614a87565b9050919050565b82818337600083830152505050565b60005b83811015614add578082015181840152602081019050614ac2565b83811115614aec576000848401525b50505050565b60006002820490506001821680614b0a57607f821691505b60208210811415614b1e57614b1d614bdd565b5b50919050565b614b2d82614c3b565b810181811067ffffffffffffffff82111715614b4c57614b4b614c0c565b5b80604052505050565b6000614b6082614a91565b915060ff821415614b7457614b73614b7f565b5b600182019050919050565b7f4e487b7100000000000000000000000000000000000000000000000000000000600052601160045260246000fd5b7f4e487b7100000000000000000000000000000000000000000000000000000000600052601260045260246000fd5b7f4e487b7100000000000000000000000000000000000000000000000000000000600052602260045260246000fd5b7f4e487b7100000000000000000000000000000000000000000000000000000000600052604160045260246000fd5b6000601f19601f8301169050919050565b7f746f6b656e4964206d757374206265206265747765656e203020616e64203900600082015250565b7f222c20226465736372697074696f6e223a202200000000000000000000000000600082015250565b7f455243373231456e756d657261626c653a206f776e657220696e646578206f7560008201527f74206f6620626f756e6473000000000000000000000000000000000000000000602082015250565b7f4552433732313a207472616e7366657220746f206e6f6e20455243373231526560008201527f63656976657220696d706c656d656e7465720000000000000000000000000000602082015250565b7f4f776e61626c653a206e6577206f776e657220697320746865207a65726f206160008201527f6464726573730000000000000000000000000000000000000000000000000000602082015250565b7f4552433732313a207472616e736665722066726f6d20696e636f72726563742060008201527f6f776e6572000000000000000000000000000000000000000000000000000000602082015250565b7f4552433732313a20746f6b656e20616c7265616479206d696e74656400000000600082015250565b7f44617461206c6f636b6564000000000000000000000000000000000000000000600082015250565b7f4552433732313a207472616e7366657220746f20746865207a65726f2061646460008201527f7265737300000000000000000000000000000000000000000000000000000000602082015250565b7f4552433732313a20617070726f766520746f2063616c6c657200000000000000600082015250565b7f4552433732313a206f70657261746f7220717565727920666f72206e6f6e657860008201527f697374656e7420746f6b656e0000000000000000000000000000000000000000602082015250565b7f4552433732313a20617070726f76652063616c6c6572206973206e6f74206f7760008201527f6e6572206e6f7220617070726f76656420666f7220616c6c0000000000000000602082015250565b7f4552433732313a2062616c616e636520717565727920666f7220746865207a6560008201527f726f206164647265737300000000000000000000000000000000000000000000602082015250565b7f4552433732313a206f776e657220717565727920666f72206e6f6e657869737460008201527f656e7420746f6b656e0000000000000000000000000000000000000000000000602082015250565b7f5573657220627579206f6e6c79206f6e63650000000000000000000000000000600082015250565b7f227d000000000000000000000000000000000000000000000000000000000000600082015250565b7f4552433732313a206d696e7420746f20746865207a65726f2061646472657373600082015250565b7f4552433732313a20617070726f76656420717565727920666f72206e6f6e657860008201527f697374656e7420746f6b656e0000000000000000000000000000000000000000602082015250565b7f4f776e61626c653a2063616c6c6572206973206e6f7420746865206f776e6572600082015250565b7f4552433732314d657461646174613a2055524920717565727920666f72206e6f60008201527f6e6578697374656e7420746f6b656e0000000000000000000000000000000000602082015250565b7f222c2022696d616765223a2022646174613a696d6167652f7376672b786d6c3b60008201527f6261736536342c00000000000000000000000000000000000000000000000000602082015250565b7f7b226e616d65223a202200000000000000000000000000000000000000000000600082015250565b7f4552433732313a20617070726f76616c20746f2063757272656e74206f776e6560008201527f7200000000000000000000000000000000000000000000000000000000000000602082015250565b7f646174613a6170706c69636174696f6e2f6a736f6e3b6261736536342c000000600082015250565b7f4552433732313a207472616e736665722063616c6c6572206973206e6f74206f60008201527f776e6572206e6f7220617070726f766564000000000000000000000000000000602082015250565b7f746f6b656e206e6f74206d696e74656400000000000000000000000000000000600082015250565b7f455243373231456e756d657261626c653a20676c6f62616c20696e646578206f60008201527f7574206f6620626f756e64730000000000000000000000000000000000000000602082015250565b7f4552433732314275726e61626c653a2063616c6c6572206973206e6f74206f7760008201527f6e6572206e6f7220617070726f76656400000000000000000000000000000000602082015250565b61533181614a0b565b811461533c57600080fd5b50565b61534881614a1d565b811461535357600080fd5b50565b61535f81614a2f565b811461536a57600080fd5b50565b61537681614a3b565b811461538157600080fd5b50565b61538d81614a87565b811461539857600080fd5b5056fe5c6e5c6e41206d656d626572206f6620756e6f6666696369616c20436c7562204a5059432e205365652068747470733a2f2f6a7079632e66756e4142434445464748494a4b4c4d4e4f505152535455565758595a6162636465666768696a6b6c6d6e6f707172737475767778797a303132333435363738392b2fa2646970667358221220e022830f87ee348c31da6a3b8bccf1b9fc8a03dbbf749dde5096c5d11acdef3964736f6c63430008040033",
  "linkReferences": {},
  "deployedLinkReferences": {}
}